:100000000C9434000C943E000C943E000C943E0082
:100010000C943E000C943E000C943E000C943E0068
:100020000C943E000C943E000C943E000C943E0058
:100030000C943E000C943E000C943E000C943E0048
:100040000C943E000C943E000C943E000C943E0038
:100050000C943E000C943E000C943E000C943E0028
:100060000C943E000C943E0011241FBECFEFD8E04C
:10007000DEBFCDBF0E9451000C9475000C940000AF
:10008000882319F081E08627089581E00895882368
:1000900031F081E0611101C008958427089581E065
:1000A00008958AB18AB9259A61E050E289B1482F52
:1000B0004470982F9870382F3071282F2471243174
:1000C00091F485FB882780F98627992341F0442302
:1000D00011F0811102C055B9E9CF15B8E7CF33232C
:0E00E000C1F355B9E3CF81E0F0CFF894FFCF24
:00000001FF
